{
    "_format": "hh-sol-artifact-1",
    "contractName": "LendingContract",
    "sourceName": "contracts/LendingContract.sol",
    "abi": [
        {
            "inputs": [
                {
                    "internalType": "address",
                    "name": "_oracleAddress",
                    "type": "address"
                }
            ],
            "stateMutability": "nonpayable",
            "type": "constructor"
        },
        {
            "inputs": [
                {
                    "internalType": "address",
                    "name": "",
                    "type": "address"
                }
            ],
            "name": "balances",
            "outputs": [
                {
                    "internalType": "uint256",
                    "name": "",
                    "type": "uint256"
                }
            ],
            "stateMutability": "view",
            "type": "function"
        },
        {
            "inputs": [
                {
                    "internalType": "uint256",
                    "name": "amount",
                    "type": "uint256"
                }
            ],
            "name": "borrow",
            "outputs": [],
            "stateMutability": "nonpayable",
            "type": "function"
        },
        {
            "inputs": [],
            "name": "lend",
            "outputs": [],
            "stateMutability": "payable",
            "type": "function"
        },
        {
            "inputs": [],
            "name": "oracleAddress",
            "outputs": [
                {
                    "internalType": "address",
                    "name": "",
                    "type": "address"
                }
            ],
            "stateMutability": "view",
            "type": "function"
        }
    ],
    "bytecode": "0x608060405234801561001057600080fd5b5060405161060f38038061060f833981810160405281019061003291906100db565b806000806101000a81548173ffffffffffffffffffffffffffffffffffffffff021916908373ffffffffffffffffffffffffffffffffffffffff16021790555050610108565b600080fd5b600073ffffffffffffffffffffffffffffffffffffffff82169050919050565b60006100a88261007d565b9050919050565b6100b88161009d565b81146100c357600080fd5b50565b6000815190506100d5816100af565b92915050565b6000602082840312156100f1576100f0610078565b5b60006100ff848285016100c6565b91505092915050565b6104f8806101176000396000f3fe60806040526004361061003f5760003560e01c806327e235e31461004457806397dffc6114610081578063a89ae4ba1461008b578063c5ebeaec146100b6575b600080fd5b34801561005057600080fd5b5061006b60048036038101906100669190610297565b6100df565b60405161007891906102dd565b60405180910390f35b6100896100f7565b005b34801561009757600080fd5b506100a061014f565b6040516100ad9190610307565b60405180910390f35b3480156100c257600080fd5b506100dd60048036038101906100d8919061034e565b610173565b005b60016020528060005260406000206000915090505481565b34600160003373ffffffffffffffffffffffffffffffffffffffff1673ffffffffffffffffffffffffffffffffffffffff168152602001908152602001600020600082825461014691906103aa565b92505081905550565b60008054906101000a900473ffffffffffffffffffffffffffffffffffffffff1681565b60008060009054906101000a900473ffffffffffffffffffffffffffffffffffffffff1673ffffffffffffffffffffffffffffffffffffffff16637f91df9c6040518163ffffffff1660e01b8152600401602060405180830381865afa1580156101e1573d6000803e3d6000fd5b505050506040513d601f19601f8201168201806040525081019061020591906103f3565b9050600061271082846102189190610420565b6102229190610491565b8361022d91906103aa565b9050505050565b600080fd5b600073ffffffffffffffffffffffffffffffffffffffff82169050919050565b600061026482610239565b9050919050565b61027481610259565b811461027f57600080fd5b50565b6000813590506102918161026b565b92915050565b6000602082840312156102ad576102ac610234565b5b60006102bb84828501610282565b91505092915050565b6000819050919050565b6102d7816102c4565b82525050565b60006020820190506102f260008301846102ce565b92915050565b61030181610259565b82525050565b600060208201905061031c60008301846102f8565b92915050565b61032b816102c4565b811461033657600080fd5b50565b60008135905061034881610322565b92915050565b60006020828403121561036457610363610234565b5b600061037284828501610339565b91505092915050565b7f4e487b7100000000000000000000000000000000000000000000000000000000600052601160045260246000fd5b60006103b5826102c4565b91506103c0836102c4565b92508282019050808211156103d8576103d761037b565b5b92915050565b6000815190506103ed81610322565b92915050565b60006020828403121561040957610408610234565b5b6000610417848285016103de565b91505092915050565b600061042b826102c4565b9150610436836102c4565b9250828202610444816102c4565b9150828204841483151761045b5761045a61037b565b5b5092915050565b7f4e487b7100000000000000000000000000000000000000000000000000000000600052601260045260246000fd5b600061049c826102c4565b91506104a7836102c4565b9250826104b7576104b6610462565b5b82820490509291505056fea2646970667358221220498bf5da02880982230bac0b97d737b30299da90e7bb1111457dd91a795022d064736f6c63430008140033",
    "linkReferences": {},
    "deployedLinkReferences": {}
}