{
  "_format": "hh-sol-artifact-1",
  "contractName": "LendingContract",
  "sourceName": "contracts/LendingContract.sol",
  "abi": [
    {
      "inputs": [
        {
          "internalType": "address",
          "name": "_oracleAddress",
          "type": "address"
        }
      ],
      "stateMutability": "nonpayable",
      "type": "constructor"
    },
    {
      "anonymous": false,
      "inputs": [
        {
          "indexed": true,
          "internalType": "address",
          "name": "user",
          "type": "address"
        },
        {
          "indexed": false,
          "internalType": "uint256",
          "name": "amount",
          "type": "uint256"
        },
        {
          "indexed": false,
          "internalType": "uint256",
          "name": "repayment",
          "type": "uint256"
        },
        {
          "indexed": false,
          "internalType": "uint256",
          "name": "blockNumber",
          "type": "uint256"
        }
      ],
      "name": "Borrowed",
      "type": "event"
    },
    {
      "anonymous": false,
      "inputs": [
        {
          "indexed": true,
          "internalType": "address",
          "name": "user",
          "type": "address"
        },
        {
          "indexed": false,
          "internalType": "string",
          "name": "reason",
          "type": "string"
        },
        {
          "indexed": false,
          "internalType": "uint256",
          "name": "blockNumber",
          "type": "uint256"
        }
      ],
      "name": "FailedTransaction",
      "type": "event"
    },
    {
      "anonymous": false,
      "inputs": [
        {
          "indexed": true,
          "internalType": "address",
          "name": "user",
          "type": "address"
        },
        {
          "indexed": false,
          "internalType": "uint256",
          "name": "amount",
          "type": "uint256"
        },
        {
          "indexed": false,
          "internalType": "uint256",
          "name": "blockNumber",
          "type": "uint256"
        }
      ],
      "name": "Lent",
      "type": "event"
    },
    {
      "inputs": [
        {
          "internalType": "address",
          "name": "",
          "type": "address"
        }
      ],
      "name": "balances",
      "outputs": [
        {
          "internalType": "uint256",
          "name": "",
          "type": "uint256"
        }
      ],
      "stateMutability": "view",
      "type": "function"
    },
    {
      "inputs": [
        {
          "internalType": "uint256",
          "name": "amount",
          "type": "uint256"
        }
      ],
      "name": "borrow",
      "outputs": [],
      "stateMutability": "nonpayable",
      "type": "function"
    },
    {
      "inputs": [],
      "name": "getAllTransactions",
      "outputs": [
        {
          "components": [
            {
              "internalType": "address",
              "name": "user",
              "type": "address"
            },
            {
              "internalType": "string",
              "name": "action",
              "type": "string"
            },
            {
              "internalType": "uint256",
              "name": "amount",
              "type": "uint256"
            },
            {
              "internalType": "uint256",
              "name": "interestRate",
              "type": "uint256"
            },
            {
              "internalType": "bool",
              "name": "success",
              "type": "bool"
            },
            {
              "internalType": "uint256",
              "name": "timestamp",
              "type": "uint256"
            }
          ],
          "internalType": "struct LendingContract.Transaction[]",
          "name": "",
          "type": "tuple[]"
        }
      ],
      "stateMutability": "view",
      "type": "function"
    },
    {
      "inputs": [
        {
          "internalType": "address",
          "name": "user",
          "type": "address"
        }
      ],
      "name": "getUserTransactions",
      "outputs": [
        {
          "components": [
            {
              "internalType": "address",
              "name": "user",
              "type": "address"
            },
            {
              "internalType": "string",
              "name": "action",
              "type": "string"
            },
            {
              "internalType": "uint256",
              "name": "amount",
              "type": "uint256"
            },
            {
              "internalType": "uint256",
              "name": "interestRate",
              "type": "uint256"
            },
            {
              "internalType": "bool",
              "name": "success",
              "type": "bool"
            },
            {
              "internalType": "uint256",
              "name": "timestamp",
              "type": "uint256"
            }
          ],
          "internalType": "struct LendingContract.Transaction[]",
          "name": "",
          "type": "tuple[]"
        }
      ],
      "stateMutability": "view",
      "type": "function"
    },
    {
      "inputs": [],
      "name": "lend",
      "outputs": [],
      "stateMutability": "payable",
      "type": "function"
    },
    {
      "inputs": [],
      "name": "oracleAddress",
      "outputs": [
        {
          "internalType": "address",
          "name": "",
          "type": "address"
        }
      ],
      "stateMutability": "view",
      "type": "function"
    },
    {
      "inputs": [
        {
          "internalType": "uint256",
          "name": "",
          "type": "uint256"
        }
      ],
      "name": "transactions",
      "outputs": [
        {
          "internalType": "address",
          "name": "user",
          "type": "address"
        },
        {
          "internalType": "string",
          "name": "action",
          "type": "string"
        },
        {
          "internalType": "uint256",
          "name": "amount",
          "type": "uint256"
        },
        {
          "internalType": "uint256",
          "name": "interestRate",
          "type": "uint256"
        },
        {
          "internalType": "bool",
          "name": "success",
          "type": "bool"
        },
        {
          "internalType": "uint256",
          "name": "timestamp",
          "type": "uint256"
        }
      ],
      "stateMutability": "view",
      "type": "function"
    },
    {
      "stateMutability": "payable",
      "type": "receive"
    }
  ],
  "bytecode": "0x60806040523480156200001157600080fd5b5060405162001a7c38038062001a7c8339818101604052810190620000379190620000e8565b806000806101000a81548173ffffffffffffffffffffffffffffffffffffffff021916908373ffffffffffffffffffffffffffffffffffffffff160217905550506200011a565b600080fd5b600073ffffffffffffffffffffffffffffffffffffffff82169050919050565b6000620000b08262000083565b9050919050565b620000c281620000a3565b8114620000ce57600080fd5b50565b600081519050620000e281620000b7565b92915050565b6000602082840312156200010157620001006200007e565b5b60006200011184828501620000d1565b91505092915050565b611952806200012a6000396000f3fe6080604052600436106100745760003560e01c80639ace38c21161004e5780639ace38c2146100f2578063a89ae4ba14610134578063c5ebeaec1461015f578063ef925399146101885761007b565b806327506f531461008057806327e235e3146100ab57806397dffc61146100e85761007b565b3661007b57005b600080fd5b34801561008c57600080fd5b506100956101c5565b6040516100a2919061103b565b60405180910390f35b3480156100b757600080fd5b506100d260048036038101906100cd919061108e565b610345565b6040516100df91906110ca565b60405180910390f35b6100f061035d565b005b3480156100fe57600080fd5b5061011960048036038101906101149190611111565b6105ab565b60405161012b969594939291906111a6565b60405180910390f35b34801561014057600080fd5b506101496106ac565b604051610156919061120e565b60405180910390f35b34801561016b57600080fd5b5061018660048036038101906101819190611111565b6106d0565b005b34801561019457600080fd5b506101af60048036038101906101aa919061108e565b610a74565b6040516101bc919061103b565b60405180910390f35b60606002805480602002602001604051908101604052809291908181526020016000905b8282101561033c57838290600052602060002090600602016040518060c00160405290816000820160009054906101000a900473ffffffffffffffffffffffffffffffffffffffff1673ffffffffffffffffffffffffffffffffffffffff1673ffffffffffffffffffffffffffffffffffffffff16815260200160018201805461027290611258565b80601f016020809104026020016040519081016040528092919081815260200182805461029e90611258565b80156102eb5780601f106102c0576101008083540402835291602001916102eb565b820191906000526020600020905b8154815290600101906020018083116102ce57829003601f168201915b5050505050815260200160028201548152602001600382015481526020016004820160009054906101000a900460ff16151515158152602001600582015481525050815260200190600101906101e9565b50505050905090565b60016020528060005260406000206000915090505481565b6000803411156104165734600160003373ffffffffffffffffffffffffffffffffffffffff1673ffffffffffffffffffffffffffffffffffffffff16815260200190815260200160002060008282546103b691906112b8565b92505081905550600190503373ffffffffffffffffffffffffffffffffffffffff167f06153dfb5bbf321206abf6a0d656bffd50bce385b925414cf7a7dd4ebcbca7ae34436040516104099291906112ec565b60405180910390a2610465565b3373ffffffffffffffffffffffffffffffffffffffff167f0c0e5142c70867e178f7ffa544ed0cbaf74e4ed8be2d549e76a9093b433251204360405161045c9190611361565b60405180910390a25b60026040518060c001604052803373ffffffffffffffffffffffffffffffffffffffff1681526020016040518060400160405280600481526020017f6c656e6400000000000000000000000000000000000000000000000000000000815250815260200134815260200160008152602001831515815260200142815250908060018154018082558091505060019003906000526020600020906006020160009091909190915060008201518160000160006101000a81548173ffffffffffffffffffffffffffffffffffffffff021916908373ffffffffffffffffffffffffffffffffffffffff1602179055506020820151816001019081610567919061156a565b50604082015181600201556060820151816003015560808201518160040160006101000a81548160ff02191690831515021790555060a08201518160050155505050565b600281815481106105bb57600080fd5b90600052602060002090600602016000915090508060000160009054906101000a900473ffffffffffffffffffffffffffffffffffffffff169080600101805461060490611258565b80601f016020809104026020016040519081016040528092919081815260200182805461063090611258565b801561067d5780601f106106525761010080835404028352916020019161067d565b820191906000526020600020905b81548152906001019060200180831161066057829003601f168201915b5050505050908060020154908060030154908060040160009054906101000a900460ff16908060050154905086565b60008054906101000a900473ffffffffffffffffffffffffffffffffffffffff1681565b6000806000808054906101000a900473ffffffffffffffffffffffffffffffffffffffff1673ffffffffffffffffffffffffffffffffffffffff16637f91df9c6040518163ffffffff1660e01b8152600401602060405180830381865afa92505050801561075c57506040513d601f19601f820116820180604052508101906107599190611651565b60015b6107b3573373ffffffffffffffffffffffffffffffffffffffff167f0c0e5142c70867e178f7ffa544ed0cbaf74e4ed8be2d549e76a9093b43325120436040516107a691906116ca565b60405180910390a261092c565b80925061271083866107c591906116f8565b6107cf9190611769565b856107da91906112b8565b91508447106108db573373ffffffffffffffffffffffffffffffffffffffff166108fc869081150290604051600060405180830381858888f19350505050158015610829573d6000803e3d6000fd5b5081600160003373ffffffffffffffffffffffffffffffffffffffff1673ffffffffffffffffffffffffffffffffffffffff1681526020019081526020016000206000828254610879919061179a565b92505081905550600193503373ffffffffffffffffffffffffffffffffffffffff167fc4381c9c7b508979896c55381c1cb8c2aef28d753cff7661f9cd87b9a14584f88684436040516108ce939291906117ce565b60405180910390a261092a565b3373ffffffffffffffffffffffffffffffffffffffff167f0c0e5142c70867e178f7ffa544ed0cbaf74e4ed8be2d549e76a9093b43325120436040516109219190611877565b60405180910390a25b505b60026040518060c001604052803373ffffffffffffffffffffffffffffffffffffffff1681526020016040518060400160405280600681526020017f626f72726f7700000000000000000000000000000000000000000000000000008152508152602001868152602001848152602001851515815260200142815250908060018154018082558091505060019003906000526020600020906006020160009091909190915060008201518160000160006101000a81548173ffffffffffffffffffffffffffffffffffffffff021916908373ffffffffffffffffffffffffffffffffffffffff1602179055506020820151816001019081610a2d919061156a565b50604082015181600201556060820151816003015560808201518160040160006101000a81548160ff02191690831515021790555060a08201518160050155505050505050565b60606000805b600280549050811015610b21578373ffffffffffffffffffffffffffffffffffffffff1660028281548110610ab257610ab16118a5565b5b906000526020600020906006020160000160009054906101000a900473ffffffffffffffffffffffffffffffffffffffff1673ffffffffffffffffffffffffffffffffffffffff1603610b0e578180610b0a906118d4565b9250505b8080610b19906118d4565b915050610a7a565b5060008167ffffffffffffffff811115610b3e57610b3d61138f565b5b604051908082528060200260200182016040528015610b7757816020015b610b64610d9d565b815260200190600190039081610b5c5790505b5090506000805b600280549050811015610d91578573ffffffffffffffffffffffffffffffffffffffff1660028281548110610bb657610bb56118a5565b5b906000526020600020906006020160000160009054906101000a900473ffffffffffffffffffffffffffffffffffffffff1673ffffffffffffffffffffffffffffffffffffffff1603610d7e5760028181548110610c1757610c166118a5565b5b90600052602060002090600602016040518060c00160405290816000820160009054906101000a900473ffffffffffffffffffffffffffffffffffffffff1673ffffffffffffffffffffffffffffffffffffffff1673ffffffffffffffffffffffffffffffffffffffff168152602001600182018054610c9690611258565b80601f0160208091040260200160405190810160405280929190818152602001828054610cc290611258565b8015610d0f5780601f10610ce457610100808354040283529160200191610d0f565b820191906000526020600020905b815481529060010190602001808311610cf257829003601f168201915b5050505050815260200160028201548152602001600382015481526020016004820160009054906101000a900460ff16151515158152602001600582015481525050838381518110610d6457610d636118a5565b5b60200260200101819052508180610d7a906118d4565b9250505b8080610d89906118d4565b915050610b7e565b50819350505050919050565b6040518060c00160405280600073ffffffffffffffffffffffffffffffffffffffff168152602001606081526020016000815260200160008152602001600015158152602001600081525090565b600081519050919050565b600082825260208201905092915050565b6000819050602082019050919050565b600073ffffffffffffffffffffffffffffffffffffffff82169050919050565b6000610e4282610e17565b9050919050565b610e5281610e37565b82525050565b600081519050919050565b600082825260208201905092915050565b60005b83811015610e92578082015181840152602081019050610e77565b60008484015250505050565b6000601f19601f8301169050919050565b6000610eba82610e58565b610ec48185610e63565b9350610ed4818560208601610e74565b610edd81610e9e565b840191505092915050565b6000819050919050565b610efb81610ee8565b82525050565b60008115159050919050565b610f1681610f01565b82525050565b600060c083016000830151610f346000860182610e49565b5060208301518482036020860152610f4c8282610eaf565b9150506040830151610f616040860182610ef2565b506060830151610f746060860182610ef2565b506080830151610f876080860182610f0d565b5060a0830151610f9a60a0860182610ef2565b508091505092915050565b6000610fb18383610f1c565b905092915050565b6000602082019050919050565b6000610fd182610deb565b610fdb8185610df6565b935083602082028501610fed85610e07565b8060005b85811015611029578484038952815161100a8582610fa5565b945061101583610fb9565b925060208a01995050600181019050610ff1565b50829750879550505050505092915050565b600060208201905081810360008301526110558184610fc6565b905092915050565b600080fd5b61106b81610e37565b811461107657600080fd5b50565b60008135905061108881611062565b92915050565b6000602082840312156110a4576110a361105d565b5b60006110b284828501611079565b91505092915050565b6110c481610ee8565b82525050565b60006020820190506110df60008301846110bb565b92915050565b6110ee81610ee8565b81146110f957600080fd5b50565b60008135905061110b816110e5565b92915050565b6000602082840312156111275761112661105d565b5b6000611135848285016110fc565b91505092915050565b61114781610e37565b82525050565b600082825260208201905092915050565b600061116982610e58565b611173818561114d565b9350611183818560208601610e74565b61118c81610e9e565b840191505092915050565b6111a081610f01565b82525050565b600060c0820190506111bb600083018961113e565b81810360208301526111cd818861115e565b90506111dc60408301876110bb565b6111e960608301866110bb565b6111f66080830185611197565b61120360a08301846110bb565b979650505050505050565b6000602082019050611223600083018461113e565b92915050565b7f4e487b7100000000000000000000000000000000000000000000000000000000600052602260045260246000fd5b6000600282049050600182168061127057607f821691505b60208210810361128357611282611229565b5b50919050565b7f4e487b7100000000000000000000000000000000000000000000000000000000600052601160045260246000fd5b60006112c382610ee8565b91506112ce83610ee8565b92508282019050808211156112e6576112e5611289565b5b92915050565b600060408201905061130160008301856110bb565b61130e60208301846110bb565b9392505050565b7f4c656e643a20416d6f756e74206973207a65726f000000000000000000000000600082015250565b600061134b60148361114d565b915061135682611315565b602082019050919050565b6000604082019050818103600083015261137a8161133e565b905061138960208301846110bb565b92915050565b7f4e487b7100000000000000000000000000000000000000000000000000000000600052604160045260246000fd5b60008190508160005260206000209050919050565b60006020601f8301049050919050565b600082821b905092915050565b6000600883026114207fffffffffffffffffffffffffffffffffffffffffffffffffffffffffffffffff826113e3565b61142a86836113e3565b95508019841693508086168417925050509392505050565b6000819050919050565b600061146761146261145d84610ee8565b611442565b610ee8565b9050919050565b6000819050919050565b6114818361144c565b61149561148d8261146e565b8484546113f0565b825550505050565b600090565b6114aa61149d565b6114b5818484611478565b505050565b5b818110156114d9576114ce6000826114a2565b6001810190506114bb565b5050565b601f82111561151e576114ef816113be565b6114f8846113d3565b81016020851015611507578190505b61151b611513856113d3565b8301826114ba565b50505b505050565b600082821c905092915050565b600061154160001984600802611523565b1980831691505092915050565b600061155a8383611530565b9150826002028217905092915050565b61157382610e58565b67ffffffffffffffff81111561158c5761158b61138f565b5b6115968254611258565b6115a18282856114dd565b600060209050601f8311600181146115d457600084156115c2578287015190505b6115cc858261154e565b865550611634565b601f1984166115e2866113be565b60005b8281101561160a578489015182556001820191506020850194506020810190506115e5565b868310156116275784890151611623601f891682611530565b8355505b6001600288020188555050505b505050505050565b60008151905061164b816110e5565b92915050565b6000602082840312156116675761166661105d565b5b60006116758482850161163c565b91505092915050565b7f426f72726f773a204f7261636c652063616c6c206661696c6564000000000000600082015250565b60006116b4601a8361114d565b91506116bf8261167e565b602082019050919050565b600060408201905081810360008301526116e3816116a7565b90506116f260208301846110bb565b92915050565b600061170382610ee8565b915061170e83610ee8565b925082820261171c81610ee8565b9150828204841483151761173357611732611289565b5b5092915050565b7f4e487b7100000000000000000000000000000000000000000000000000000000600052601260045260246000fd5b600061177482610ee8565b915061177f83610ee8565b92508261178f5761178e61173a565b5b828204905092915050565b60006117a582610ee8565b91506117b083610ee8565b92508282039050818111156117c8576117c7611289565b5b92915050565b60006060820190506117e360008301866110bb565b6117f060208301856110bb565b6117fd60408301846110bb565b949350505050565b7f426f72726f773a204e6f7420656e6f7567682066756e647320696e20636f6e7460008201527f7261637400000000000000000000000000000000000000000000000000000000602082015250565b600061186160248361114d565b915061186c82611805565b604082019050919050565b6000604082019050818103600083015261189081611854565b905061189f60208301846110bb565b92915050565b7f4e487b7100000000000000000000000000000000000000000000000000000000600052603260045260246000fd5b60006118df82610ee8565b91507fffffffffffffffffffffffffffffffffffffffffffffffffffffffffffffffff820361191157611910611289565b5b60018201905091905056fea2646970667358221220625e4bafc8455b88e6acb0dc0ad2b6ac6782c9315267461bd663719959bdb2e264736f6c63430008140033",
  "linkReferences": {},
  "deployedLinkReferences": {}
}